:100000000C9434000C94F2020C9406030C943E0001
:100010000C943E000C943E000C943E000C943E0068
:100020000C943E000C943E000C943E000C943E0058
:100030000C943E000C943E000C943E000C943E0048
:100040000C943E000C943E000C9428030C943E004B
:100050000C943E000C943E000C943E000C943E0028
:100060000C943E000C943E0011241FBECFEFD8E04C
:10007000DEBFCDBF0E94D2020C9494030C9400000A
:100080000F93449A459A08E40093B80000E0009367
:10009000B90004E00093BC000F9108950F9304EAA7
:1000A0000093BC0015D00F9108950F9304E90093BD
:1000B000BC0000000000000000000F9108951F9395
:1000C0000093BB0014E81093BC0002D01F91089568
:1000D0000F930091BC0007FFFCCF0F9108950F9381
:1000E0000EE4EDDF0F9108951F93102F107F122B58
:1000F0001860012F0460D2DFF2DFE1DFD6DF012FCD
:100100000B7FCCDFECDFDBDFD0DF1F9108951F9387
:100110003F93302FE9DF032F0295E6DF51D03F9167
:100120001F9108952F9320E0F2DF2F9108952F93D0
:1001300021E0EDDF2F9108950F932F93059100306B
:1001400011F0F5DFFBCF2F910F9108950F931F93BF
:100150002F933F93003011F030EC01C030E8310FA5
:10016000032FE0DF3F912F911F910F9108950F937F
:1001700001E0D8DF30D00F9108950F931F932F9394
:100180007FDF29D028D027D000E320E0ADDF23D0C7
:1001900000E3AADF15D000E3A7DF12D000E2A4DF5E
:1001A0000FD008E2BFDF08E0BDDF01E0BBDF13D006
:1001B00006E0B8DF0CE0B6DF2F911F910F91089594
:1001C0000F931F931AE00FEF0A95F1F71A95D9F7DD
:1001D0001F910F9108950F931F931FEF0FEF0A9533
:1001E000F1F71A95D9F71F910F91089500050A0F9D
:1001F000131852006E009300C400F7004A01453204
:100200000046320046233200473200472332004185
:100210003200412332004232004333004323330093
:100220004433004423330045330046330046233330
:10023000004733004723330041330041233300425A
:100240003300433400432334004434004423340057
:100250004534004C4F4F53454E20004E49434520F6
:100260002020005449474854454E002D2D2D2D2D5A
:100270002D2D000000005400FE0100005500590023
:10028000010200005A005E00040200005F006400EA
:100290000802000065006A000B0200006B0070009D
:1002A0000F020000710077001202000078007E004B
:1002B000160200007F0086001902000087008E00F1
:1002C0001C0200008F0096002002000097009F0093
:1002D00023020000A000A90027020000AA00B3002A
:1002E0002A020000B400BD002D020000BE00C900BB
:1002F00031020000CA00D50034020000D600E1003F
:1003000038020000E200EF003B020000F000FD00B8
:100310003F020000FE000C01420200000D011C0122
:10032000450200001D012D01490200002E013F0180
:100330004C0200004001E703500200002F933F935E
:10034000442724E630E0821B930B10F04395F9CF4D
:10035000820F931F3F912F9108952F933F9355271D
:100360002AE030E0821B930B10F05395F9CF820FF7
:10037000931F3F912F9108950F932F933F934F9386
:100380005F938F939F93DADFE8DF042F0063CFDE64
:10039000052F0063CCDE082F0063C9DE9F918F918B
:1003A0005F914F913F912F910F910895C5DE089570
:1003B0000F931F932F933F934F935F93F2E0E4E7E4
:1003C000AA27A931B9F0259135914591559105910B
:1003D000159105900590082E021A092E030A40F087
:1003E000042E081A052E090A18F0E02FF12F05C077
:1003F000A395E7CFAFEFF2E0EBE65F914F913F912E
:100400002F911F910F9108950F931F93F1E0ECEE40
:10041000E70F0027F01F0491000F000F000FF2E01C
:10042000E4E7E00F1127F11F259135914591559192
:1004300005911591E02FF12F1F910F9108950F93C2
:100440001F932F933F934F935F93F1E0E2EF072FBA
:10045000000FE00F1127F11F25913491422F532FE8
:10046000225030404E5F5F4F082F021B092F030BB5
:1004700040F0042F081B052F090B30F0F2E0EBE5EC
:1004800005C0F2E0E3E502C0F2E0E3E65F914F91E0
:100490003F912F911F910F910895487A2000487A3B
:1004A00020202020202020000F931F937F938F93E4
:1004B0009F93FF93EF934F935F9300E010E046DE2E
:1004C000A3DF3ADE00E012E041DE00E230DE00E0D1
:1004D00013E03CDEF1E0E2EF072F000FE00F002712
:1004E000F01F45915491082F192F842F952F44DF29
:1004F000802F912F00E016E029DEF4E0EAE91CDE0F
:1005000000E019E023DE9BDF17DE01E012E01EDED3
:1005100000E20DDE01E013E019DE00E208DE01E09A
:1005200010E014DE45DF08DE01E014E00FDE24DF1A
:1005300001E017E00BDEF4E0EEE9FEDD5F914F91A4
:10054000EF91FF919F918F917F911F910F9108954E
:100550002020417564696F2054756E6572202020DB
:100560000020496E697469616C697A696E672E2E24
:1005700020000F931F93FF93EF9300E010E0E6DD60
:10058000F5E0E0E5D9DD01E010E0E0DDF5E0E1E6F1
:10059000D3DD02E520DE0A95E9F7EF91FF911F9187
:1005A0000F91089508E00EBF0FEF0DBF11246627CD
:1005B00077278827992752985A9A53985B9A06E08A
:1005C0000093690003E00DBB2FD072D0D6DDD1DFE0
:1005D00078946130F1F766278091020190910301D0
:1005E00063DFF7CF0F930FB70F931F93FF93EF9333
:1005F0007395763008F401C0772761E065D0EF91FC
:10060000FF911F910F910FBF0F9118950F930FB787
:100610000F931F93FF93EF9367D0EF91FF911F917B
:100620000F910FBF0F91189500E00093C50007E6EA
:100630000093C40000E90093C10006E00093C200EB
:1006400000E000930001009302010093030108956C
:100650000F930FB70F931F930091C60010910001E5
:10066000103029F0113049F0123069F013C00F3FFB
:10067000A1F411E01093000110C00093010112E0F9
:10068000109300010AC0009303011091010110931F
:10069000020161E010E0109300011F910F910FBF64
:1006A0000F911895652F82239A1AED13D10FD90B4C
:1006B000219A00E00093800008E00093810000E0B0
:1006C00000930401299808957770763060F4E4EA85
:1006D000F6E0072F000FE00FF11D05911491109324
:1006E00089000093880008954B990FC00091040180
:1006F000013051F001E000930401E6DF00E40093D3
:1007000080000AE000938100089500910401003008
:10071000D9F300E00093040100E00093800000E0C2
:0C0720000093810029980895F894FFCF01
:00000001FF
