:100000000C945B000C9465000C9465000C946500E6
:100010000C9465000C9465000C9465000C946500CC
:100020000C9465000C9465000C9465000C946500BC
:100030000C9465000C9465000C9465000C946500AC
:100040000C9465000C9465000C9465000C9465009C
:100050000C9465000C9465000C9465000C9465008C
:100060000C9465000C9465000C9455030C94750376
:100070000C9489030C945A000C945A000C945A0066
:100080000C945A000C945A000C945A000C945A0088
:100090000C945A000C945A000C945A000C945A0078
:1000A0000C945A000C945A000C945A000C945A0068
:1000B0000C94EF02189511241FBECFEFD8E0DEBFDD
:1000C000CDBF0E9455030C9497030C9400000F932E
:1000D00008E40093B80000E00093B90004E0009346
:1000E000BC000F9108950F9304EA0093BC0015D053
:1000F0000F9108950F9304E90093BC0000000000E5
:10010000000000000F9108951F930093BB0014E8B6
:100110001093BC0002D01F9108950F930091BC0072
:1001200007FFFCCF0F9108950F930EE4EDDF0F91C1
:1001300008951F93102F107F122B1860012F046059
:10014000D2DFF2DFE1DFD6DF012F0B7FCCDFECDF88
:10015000DBDFD0DF1F9108951F933F93302FE9DF3E
:10016000032F0295E6DF51D03F911F9108952F9301
:1001700020E0F2DF2F9108952F9321E0EDDF2F9102
:1001800008950F932F930591003011F0F5DFFBCF09
:100190002F910F9108950F931F932F933F9300304A
:1001A00011F030EC01C030E8310F032FE0DF3F9158
:1001B0002F911F910F9108950F9301E0D8DF30D058
:1001C0000F9108950F931F932F9381DF29D028D08B
:1001D00027D000E320E0ADDF23D000E3AADF15D075
:1001E00000E3A7DF12D000E2A4DF0FD008E2BFDFF8
:1001F00008E0BDDF01E0BBDF13D006E0B8DF0CE0B4
:10020000B6DF2F911F910F9108950F931F931AE05E
:100210000FEF0A95F1F71A95D9F71F910F910895ED
:100220000F931F931FEF0FEF0A95F1F71A95D9F768
:100230001F910F91089500050A0F131845320046CB
:100240003200462332004732004723320041320059
:10025000412332004232004333004323330044330E
:100260000044233300453300463300462333004720
:10027000330047233300413300412333004233002E
:1002800043340043233400443400442334004534D1
:1002900000544F4F204C4F4F534520004E4943458B
:1002A00020202020202000544F4F205449474854FC
:1002B00020002D2D2D2D2D2D2D2D2D2D000052000A
:1002C00053003C020000570058003F0200005C0051
:1002D0005D0042020000610063004602000067000A
:1002E0006900490200006D006F004D0200007400BB
:1002F0007500500200007B007C0054020000820068
:100300008400570200008A008B005A02000092000D
:1003100094005E0200009B009D0061020000A400AA
:10032000A60065020000AE00B00068020000B80040
:10033000BA006B020000C300C5006F020000CF00CE
:10034000D10072020000DB00DD0076020000E80050
:10035000EA0079020000F600F8007D0200000401C6
:10036000070180020000140116018302000024012D
:10037000270187020000360139018A020000480186
:100380004B018E0200002F933F93442724E630E078
:10039000821B930B10F04395F9CF820F931F3F916F
:1003A0002F9108952F933F9355272AE030E0821B29
:1003B000930B10F05395F9CF820F931F3F912F911C
:1003C00008950F932F933F934F935F938F939F9332
:1003D000DADFE8DF042F0063CFDE052F0063CCDE19
:1003E000082F0063C9DE9F918F915F914F913F91DC
:1003F0002F910F910895C5DE08950F931F932F93AA
:100400003F934F935F93F2E0EEEBAA27A931B9F047
:10041000259135914591559105911591059005903E
:10042000082E021A092E030A40F0042E081A052E7F
:10043000090A18F0E02FF12F05C0A395E7CFAFEF21
:10044000F2E0E2EB5F914F913F912F911F910F915D
:1004500008950F931F93F2E0E6E3E70F0027F01FE4
:100460000491000F000F000FF2E0EEEBE00F1127F8
:10047000F11F259135914591559105911591E02FE9
:10048000F12F1F910F9108950F931F932F933F9377
:100490004F935F93DEDF082F021B092F030B40F001
:1004A000042F081B052F090B30F0F2E0ECE905C022
:1004B000F2E0E1E902C0F2E0E7EA5F914F913F919B
:1004C0002F911F910F910895543A00413A0020480E
:1004D0007A00202020000F931F937F938F939F9388
:1004E000FF93EF9300E010E056DEF4E0E8EC49DE25
:1004F000B0DF47DE00E014E04EDEF4E0E2ED41DE86
:1005000000E017E048DEF4E0EBEC3BDE00E019E051
:1005100042DE57DF00E01CE03EDEF4E0EEEC31DED0
:1005200000E01FE038DE00E227DE01E010E033DE0D
:10053000ABDF27DE01E01AE02EDE00E21DDE00E286
:100540001BDE00E219DE00E217DE00E215DE00E24B
:1005500013DEEF91FF919F918F917F911F910F91EA
:1005600008952020417564696F2054756E6572206E
:1005700020200020496E697469616C697A696E6730
:100580002E2E20000F931F93FF93EF9300E010E0B7
:1005900002DEF5E0E2E6F5DD01E010E0FCDDF5E08D
:1005A000E3E7EFDD04EA3CDE0A95E9F7EF91FF911E
:1005B0001F910F91089500E00093C50007E6009396
:1005C000C40000E90093C10006E00093C20000E00F
:1005D00000930001009302010093030108950F931B
:1005E0000FB70F931F930091C600109100011030B8
:1005F00029F0113049F0123069F013C00F3FA1F417
:1006000011E01093000110C00093010112E010935B
:1006100000010AC00093030110910101109302012F
:1006200061E010E0109300011F910F910FBF0F9137
:100630001895652F81239B1AED13D10FD90B219AA1
:1006400000E00093800008E00093810000E0009348
:100650000401299808957770763060F4E2E3F6E0BB
:10066000072F000FE00FF11D0591149110938900E1
:1006700000938800089500910401003059F000E0D3
:100680000093040100E00093800000E000938100EB
:100690002998089501E000930401DDDF00E4009350
:1006A00080000AE000938100089508E00EBF0FEF7C
:1006B0000DBF1124662777278827992752985A9AC1
:1006C00053985B9A0AE00093690003E00DBB73DF67
:1006D000B6DF78DD57DF78946130F1F766278091D7
:1006E000020190910301F7DEF7CF0F930FB70F933D
:1006F0001F93FF93EF937395763008F401C077272B
:1007000061E0A9DFEF91FF911F910F910FBF0F9152
:1007100018950F930FB70F931F93FF93EF93ABDFD2
:10072000EF91FF911F910F910FBF0F911895F894C2
:02073000FFCFF9
:06073200000000000000C1
:00000001FF
