:100000000C9434000C943E000C943E000C943E0082
:100010000C943E000C943E000C943E000C943E0068
:100020000C943E000C943E000C943E000C943E0058
:100030000C943E000C943E000C943E000C943E0048
:100040000C943E000C943E000C943E000C943E0038
:100050000C943E000C943E000C943E000C943E0028
:100060000C943E000C943E0011241FBECFEFD8E04C
:10007000DEBFCDBF0E9440000C9405010C9400002F
:1000800000E00093C50007E60093C40008E0009379
:10009000C10006E00093C20000E000930700009357
:1000A000080001E000937E0000E400937C0007E874
:1000B00000937A0000E000937B0000917A000064D6
:1000C00000937A0000917A0006FDFCCF00E00093D7
:1000D00080000093810000E0009381000093850080
:1000E0000093840030917A00306430937A0030912C
:1000F0007A0036FDFCCF0091780010917900043F22
:1001000021E0120778F730917A00306430937A005A
:1001100030917A0036FDFCCF009178001091790083
:10012000083022E0120778F302E00093810030915A
:100130007A00306430937A0030917A0036FDFCCF3B
:100140000091780010917900043F21E0120778F7C0
:1001500030917A00306430937A0030917A0036FD25
:10016000FCCF0091780010917900083022E012074E
:1001700078F300E000938100409184005091850065
:10018000042F052B09F4A7CF00E8C02E04E8D02ED9
:100190000EE1E02EFF24662777278827992720E2A3
:1001A000CC0CDD1CEE1CFF1C661F771F641B750B3F
:1001B00018F4640F751F01C081602A9519F0880F2B
:1001C000991FEECF9F3F09F49EEF8F3F09F48EEF0A
:1001D0000FEF3091C00035FFFCCF0093C600309187
:1001E000C00035FFFCCF8093C6003091C00035FFC2
:1001F000FCCF9093C6002DE03AEF4AEF4A95F1F715
:0E0200003A95D9F72A95C1F766CFF894FFCF4B
:00000001FF
